:020000040800F2
:1000000040100020FD01000883390008B1300008CD
:100010008139000861080008594E000800000000FE
:100020000000000000000000000000007D45000806
:10003000970B000800000000D9390008AD45000802
:100040001702000817020008170200087F3C00088A
:100050001702000817020008170200089D0B00088D
:10006000170200081702000817020008170200080C
:1000700017020008170200081702000817020008FC
:1000800017020008170200081702000817020008EC
:1000900017020008170200081702000817020008DC
:1000A00017020008A14600081702000817020008FE
:1000B00017020008170200081702000817020008BC
:1000C00017020008170200081702000800000000CD
:1000D00017020008170200080000000000000000DE
:1000E000170200081702000817020008170200088C
:1000F0005B3300085F330008E12A0008170200089C
:10010000170200080000000017020008170200088C
:10011000170200081702000817020008170200085B
:10012000170200081702000817020008170200084B
:1001300017020008170200081702000800F002F872
:1001400000F04CF80AA090E8000C82448344AAF125
:100150000107DA4501D100F041F8AFF2090EBAE823
:100160000F0013F0010F18BFFB1A43F001031847EB
:100170008C710000BC7100000A4410F8014B14F0AF
:100180000F0508BF10F8015B240908BF10F8014BE8
:100190006D1E05D010F8013B6D1E01F8013BF9D131
:1001A000641E03D0641E01F8015BFBD19142E4D3CD
:1001B000704700000023002400250026103A28BFC5
:1001C00078C1FBD8520728BF30C148BF0B607047C9
:1001D0001FB506F0ADF81FBD10B510BD00F024F935
:1001E0001146FFF7F5FF05F023FB00F042F903B4D9
:1001F000FFF7F2FF03BC00F047F900000948804711
:1002000009480047FEE7FEE7FEE7FEE7FEE7FEE7F8
:10021000FEE7FEE7FEE7FEE704480549054A064B10
:1002200070470000454600083D010008400A0020D4
:1002300040100020400C0020400C002010B5431C52
:1002400002E010F8011B71B18107FAD14FF00132C1
:1002500002C88C1A8C4314EAC211F9D0C01A0A06DB
:1002600003D0C01E10BDC01A10BD0A0401D0801EEC
:1002700010BD0902FCD0401E10BD032A40F23080A0
:1002800010F0030C00F0158011F8013BBCF1020FD7
:10029000624498BF11F801CB00F8013B38BF11F858
:1002A000013BA2F1040298BF00F801CB38BF00F86F
:1002B000013B11F0030300F02980083AC0F00880E8
:1002C00051F8043B083A51F804CBA0E80810F5E7D0
:1002D000121D5CBF51F8043B40F8043BAFF30080B3
:1002E000D20724BF11F8013B11F801CB48BF11F828
:1002F000012B24BF00F8013B00F801CB48BF00F8F8
:10030000012B704701B5FFF7B8FF01BD10B5203ACA
:10031000C0F00B80B1E81850203AA0E81850B1E8BE
:100320001850A0E81850BFF4F5AF5FEA027C24BF74
:10033000B1E81850A0E8185044BF18C918C0BDE86B
:1003400010405FEA827C24BF51F8043B40F8043B34
:1003500008BF7047D20728BF31F8023B48BF11F8E9
:10036000012B28BF20F8023B48BF00F8012B704743
:1003700001F0FF03114601B543EA032242EA0242BB
:1003800000F003F801BD4FF000020429C0F0128014
:1003900010F0030C00F01B80CCF1040CBCF1020F38
:1003A00018BF00F8012BA8BF20F8022BA1EB0C010D
:1003B00000F00DB85FEAC17C24BF00F8012B00F803
:1003C000012B48BF00F8012B70474FF0000200B529
:1003D000134694469646203922BFA0E80C50A0E868
:1003E0000C50B1F12001BFF4F7AF090728BFA0E816
:1003F0000C5048BF0CC05DF804EB890028BF40F8E2
:10040000042B08BF704748BF20F8022B11F0804F23
:1004100018BF00F8012B7047704770477047000005
:1004200000487047DC0900207546FFF7F9FFAE462B
:1004300005006946534620F00700854618B020B5F0
:10044000FFF7EAFEBDE820404FF000064FF000073E
:100450004FF000084FF0000B21F00701AC46ACE86C
:10046000C009ACE8C009ACE8C009ACE8C0098D46D9
:10047000704710B50446AFF300802046BDE8104039
:10048000FFF7B5BE7047000001491820ABBEFEE77C
:100490002600020000B587B01C2205496846FFF718
:1004A00035FF04F071FB684603F013FD07B000BD93
:1004B0006C64000810B500F085FB00F08BFB04486D
:1004C000016841F480310160BDE8104000F002B8DD
:1004D00090080058F0B585B014216846FFF775FF05
:1004E0000024324B324A2546264620464FF090479C
:1004F0004FF4806C02EBC00191F806E0BEF1000FF2
:100500000AD0D1F800E0BE4549D01EEB030E49D019
:10051000E64501D189880E43401CC0B22628E9D3A4
:100520000020029001200190032003907CB1012063
:10053000009402F040FF012002F076FF6946384641
:1005400000F078FB00222146384600F071FC8DB1A6
:100550000220009502F02FFF022002F065FF134CED
:1005600069466442204600F065FB00222946204689
:1005700000F05EFC002E10D00420009602F01BFF5D
:10058000042002F051FF0B4C6946204600F052FB5C
:1005900000223146204600F04BFC05B0F0BD8988B2
:1005A0000C43B9E789880D43B6E7000000FCFFB7AC
:1005B0003C630008000800487047000030B589B06F
:1005C0000446456804A803F091FCB5F80B00B0F5AB
:1005D000124F0AD1002000900190029003906168B0
:1005E000497B21B1012900D1207009B030BDFFF74E
:1005F00051FF0D208DF800007F208DF80200074884
:100600000068000CADF80C00684603F056FC00F0E2
:1006100007F80021012004F0FDFAE6E7002004E0DD
:1006200030B58FB034221B496846FFF76FFE1A4879
:100630000D901A480E900DA9194804F093FF01215E
:10064000022004F0E7FA174A0021022004F008FB18
:10065000684603F025FC08B100F0B2FA00F08EF80D
:1006600003F0CCFD104C00254FF6FF7084F880504D
:10067000E0820E4A2946012004F0F2FA062004F036
:10068000EDFE00F09BF965762576012000F01EF85E
:100690000FB030BD5C650008280003200B07000880
:1006A0001F07000819570008F8000020B1060008CD
:1006B00010B5054C94F88000052804D004F03FFDE7
:1006C000002084F8800010BDF800002000B50C491F
:1006D00087B0A02281F8800000200590069003904A
:1006E00004900090019003468021029004F0B1FC38
:1006F00007B004490C205DF804EB04F040BD000095
:10070000F800002072000020704720B1012805D1B8
:10071000032004F0B5BA032004F094BA704710B572
:1007200004464068083003F0FFFE00B1012020704D
:1007300010BD7047704700000D4810B50068411C9F
:100740000FD00B49091D0A680A49130A0870000AEC
:1007500048708A70CB70180A0871180C48710846E6
:1007600010BD002003F01EF90028F9D1024810BD89
:100770008075FF1F6C0000203465000870B58AB0DA
:100780000026089604F04EFFFFF7D6FF024606212A
:10079000002004F0B0FE2C4A1021182004F0ABFE1B
:1007A000294A10211032082004F0A5FE182101204A
:1007B00004F079FE04F0C3FD07AA06A9CDE90012F2
:1007C000012022A405AB0822002104F077FB20467B
:1007D000FFF734FDC3B200940022BDF81810BDF835
:1007E000140004F0CDFD08A8009002230022BDF8FB
:1007F0001C10BDF8140004F0C3FD022211460020B5
:1008000004F0D8FE144C01252846257004F072FC33
:1008100065700821217110236371E6700F4AA26090
:10082000A670CDE90013CDE902623046049600239C
:100830000122294604F0D4FBA078002801D004F05E
:100840001DFB0AB070BD00003A65000854454D50CC
:100850004C41544500000000F800002007B20100A0
:10086000FEE710B5612005F077F800F03F01BDE824
:100870001040612005F04CBD10B500F016F8C0071F
:1008800000D0012010BD10B500F00FF8800701D591
:10089000012010BD002010BD10B500F006F8400783
:1008A00001D5012010BD002010BD032005F054B873
:1008B00010B5612005F050F840F04001612005F0CE
:1008C00027FDBDE810403B20AFF3008010B5014686
:1008D000412005F01DFD2021BDE81040002005F05D
:1008E00017BD00000FB42A2210B502A91348FFF764
:1008F0000DFDBDF83200114C60850D98E0620E9838
:1009000020630D220FA904F13400FFF7FFFC9DF8CE
:10091000490084F841009DF84A0084F84200139889
:1009200060641498A064072000F022F8072000F00B
:1009300012F810BC5DF814EB00F002B8900900202A
:1009400010B5002005F008F800F0FE01BDE81040E9
:10095000002005F0DDBC0146272005F0D9BC01468A
:10096000602005F0D5BC0007010E612005F0D0BC69
:100970000F2141EA0010C1B21F2005F0C9BC014699
:10098000402005F0C5BC0146422005F0C1BC7047BF
:1009900010B50949074C496830B101202070002981
:1009A00007D0BDE81040084709B100208847002063
:1009B000207010BDBC010020B40000207047000072
:1009C00030B505780C480A490A4C0C4B00780222D5
:1009D0004DB1012D06D100250D7003212170012894
:1009E00000D01A7030BD01250D700421F6E700001B
:1009F0000C00002009000020110000200D00002044
:100A00002DE9F0410546007800282BD0012829D097
:100A1000022807D0032825D16F68284C0026387893
:100A200010B329E080212648FFF7ADFC00202449BF
:100A300003E06A68125C0A54401C2A7A8242F8DC9D
:100A400020480A7802704A7842708A788270CA78A0
:100A5000C2701D480A7902704A7942708A798270A0
:100A6000C979C170BDE8F08180211848FFF78BFC7F
:100A70007878E070A670267066703978A078814228
:100A8000F0D113490978014307D1124A01211170AD
:100A9000114A1170114A02211170401C0B4AA070BA
:100AA00061786B68881C491C1B5C20781354401CBF
:100AB0002070C8B260701328F2D3D3E77E00002004
:100AC0004004002034000020380000206402002090
:100AD000110000200B000020090000200D00002064
:100AE000F0B541780026441C87B0FF294CD1284A34
:100AF00034F8021F0225138952890327A1F54061AA
:100B0000013902F1010203F1010302D012293BD1A4
:100B100016E0A1880D30A41C994203D101268DF85E
:100B2000085004E091422FD101268DF808700390FF
:100B300094F806008DF8100002A8FFF761FF23E08B
:100B4000A1880A30A41C99420DD12279CDE9002058
:100B500007460023012620881A4604F047FC8DF83A
:100B6000085003970EE091420ED12279CDE9002082
:100B700005460023012620881A4604F037FC8DF82C
:100B8000087003952079D5E707B03046F0BD000026
:100B90007C010020704770477047000010B50220AC
:100BA00000F03CF804480178012903D1034A1160A0
:100BB0000221017010BD0000110000200D00002076
:100BC00072B6FEE70248416841F00101416070479A
:100BD000002004E00248416841F002014160704792
:100BE000002004E070B5044600F028F90546601CBA
:100BF00002D000F029F90444064E00BF00F01EF9AF
:100C0000401BA04205D2306820F00400306030BFA5
:100C1000F4E770BD10ED00E070470000044910B526
:100C20000A68024202D00860FFF7F6FF10BD00001C
:100C30000C0800582DE9F04FDFF8E0B1DFF8DC9147
:100C40000022012403260BF1800B85B00F2709F148
:100C5000040A0BF1040ED8E004FA02FC18EA0C03B3
:100C60007DD00D7905F00305012D01D0022D20D195
:100C700085680095550006FA05F80495009D25EA5B
:100C800008050095D1F80C80049D08FA05F8009D30
:100C900048EA0508C0F80880456825EA0C0591F87F
:100CA00004C0CCF3001C0CFA02FC4CEA050CC0F8A2
:100CB00004C00D79ED43AD070ED0C5684FEA420878
:100CC00006FA08FC25EA0C05D1F808C00CFA08FC65
:100CD0004CEA050CC0F80CC00D7905F00305022D97
:100CE00015D1D50800EB850502952D6A4FEA427CA7
:100CF0004FEADC6C07FA0CF825EA0805D1F81080F9
:100D000008FA0CF848EA0508029DC5F82080056835
:100D10004FEA420CCDF808C006FA0CFC25EA0C0597
:100D200091F804C00CF00308DDF808C008FA0CF8CC
:100D300048EA0508C0F800804D6815F4403F63D0CC
:100D4000374D22F0030C65440295AD684FEA827C72
:100D50004FEA1C7807FA08FC25EA0C0500E053E08E
:100D6000B0F1904F06D0DFF8BCC0604505D14FF020
:100D7000010C12E04FF0000C0FE0DFF8ACC0604552
:100D800002D14FF0020C08E0DFF8A0C0604502D1AC
:100D90004FF0040C01E04FF0070C0CFA08FC4CEA91
:100DA000050C029DC5F808C0D9F80050CC46D1F812
:100DB00004809D435FEAC82800D51D43CCF800504D
:100DC000DAF80050D446D1F804809D435FEA8828C1
:100DD00000D51D43CCF80050DBF80050DC46D1F8BC
:100DE00004809D435FEAC83800D51D43CCF800500D
:100DF000DEF80050F446D1F804809D435FEA88385D
:100E000000D51D43CCF80050521C0B689846D340C7
:100E10007FF422AF05B0BDE8F08F00000008005855
:100E2000000001400004004800080048001000488D
:100E30000AB1816170478162704700000148806893
:100E400070470000580000200148007870470000FB
:100E500058000020014840687047000058000020FA
:100E600070470000064810B5006805490C390A684B
:100E700082430A60091D0860FFF7F2FF10BD000001
:100E80000C15005890F84120202A24D190F84020D9
:100E9000012A20D0012280F84020242280F841201D
:100EA0000268136823F0010313600268136823F4D7
:100EB00080531360026813680B43136001680A686B
:100EC00042F001020A60202180F84110002180F8E0
:100ED0004010084670470220704790F84120202AB1
:100EE00022D190F84020012A1ED0012280F8402013
:100EF000242280F841200268136823F00103136064
:100F00000268136823F4706343EA012111600168E9
:100F10000A6842F001020A60202180F84110002195
:100F200080F84010084670470220704770B50400F2
:100F300004D094F84100002510B106E0012070BDF6
:100F400084F84050204600F071F9242084F84100D4
:100F50002068016821F0010101606068216820F0CB
:100F6000706008612068816821F400418160E06858
:100F70000128A06807D040F4044021688860E06838
:100F8000022803D006E040F40040F6E721684FF461
:100F90000060486020684168114A11434160206840
:100FA000C16821F40041C160D4E904010843A1698A
:100FB00040EA01202168C860D4E90701084321689C
:100FC00008602068016841F001010160656420202B
:100FD00084F84100256384F84250002070BD000071
:100FE000008000022DE9F84F044690F84100DDF83A
:100FF00028A01F4690468B4620287ED194F84000BA
:1010000001287AD0012084F84000FFF717FF064638
:10101000012200901923D103204602F0E1F8E0BB41
:10102000222084F84100102084F8420000256564E5
:10103000C4F8248067856563618D3148FF274FF0D0
:1010400080784FF00079FF2903D927853A46009030
:1010500039E0618D218500903AE05946204602F042
:10106000A7F813E002F0E8F8B8B92068406A616AAE
:101070000870606A401C6062208D401E80B220852E
:10108000618D491E6185618D01B168B1608D324607
:10109000002851462046E5D100E002E002F00EF9BA
:1010A000D0B10120BDE8F88F5346002280212046B0
:1010B000009602F095F80028F3D1608DFF2804D93E
:1010C00027853A4600954346C7E7608D2085009501
:1010D00094F828204B46C0E721682020C861216889
:1010E0004A68084B1A404A6084F8410084F842502C
:1010F00084F840500020D5E7FFE70220D2E7000047
:101100000024008000E800FE2DE9F84F044690F826
:101110004100DDF828A01F4690468B4620287ED14E
:1011200094F8400001287AD0012084F84000FFF7AD
:1011300085FE0646012200901923D103204602F0C5
:101140004FF8E0BB212084F84100102084F84200D1
:1011500000256564C4F8248067856563618D314826
:10116000FF274FF080784FF00079FF2903D92785BA
:101170003A46009039E0618D218500903AE0594669
:10118000204602F015F813E002F0BEF8B8B9606A24
:10119000216800788862606A401C6062608D401E31
:1011A0006085208D401E80B22085618D01B168B1BF
:1011B000608D3246002851462046E5D100E002E02D
:1011C00002F07CF8D0B10120BDE8F88F5346002230
:1011D00080212046009602F003F80028F3D1608DAC
:1011E000FF2804D927853A4600954346C7E7608D16
:1011F0002085009594F828204B46C0E721682020E0
:10120000C86121684A68084B1A404A6084F8410066
:1012100084F8425084F840500020D5E7FFE70220D0
:10122000D2E700000020008000E800FE10B59AB070
:101230000446142114A8FFF7C8F850216846FFF7A8
:10124000C4F81249206888421ED14FF4403004246B
:1012500008900094684600F031F908B1FFF7B0FC3F
:10126000022002F0B2F84FF4407014901220159052
:1012700000201690CDE9170414A90548FFF7DAFC01
:101280004FF4001002F0B5F81AB010BD0054004041
:101290000004004870B504004FF0000616D00D4D54
:1012A00094F8380010B9204600F016F8284602F0ED
:1012B00058F8286840F001102860204602F05AF8DB
:1012C00000206063012084F8380000E001263046E9
:1012D00070BD0000000C005810B500680C49884231
:1012E00015D14FF4801002F07AF8002211462C201C
:1012F00000F098F82C2000F07AF8002211462D20FA
:1013000000F090F8BDE810402D2000F070B810BD3E
:10131000000C0058704770470248816802781144F9
:101320008160704758000020094810B5016800240A
:1013300041F480710160032000F094F80F2000F068
:1013400009F808B1012401E000F024F8204610BD9E
:101350000040005870B50E4E054600243078A0B10C
:1013600000F0B2FA31784FF47A72B2FBF1F1B0FBCF
:10137000F1F001F04BF840B9102D06D200222946B9
:10138000501E00F04FF8756000E00124204670BD4B
:101390005800002010B54FF4002002F020F8002281
:1013A00011462E2000F03EF8BDE810402E2000F03F
:1013B0001EB8002809DB00F01F02012191404009FE
:1013C000800000F1E020C0F88012704700280DDB9B
:1013D00000F01F02012191404009800000F1E0204F
:1013E000C0F88011BFF34F8FBFF36F8F7047002895
:1013F00009DB00F01F02012191404009800000F14B
:10140000E020C0F800117047002809DB00F01F023F
:10141000012191404009800000F1E020C0F8001255
:1014200070470000F0B40E4B1B680C46C3F3022358
:10143000C3F10705042D00D90425191D072901D280
:10144000002300E0DB1E012606FA05F1491E2140BB
:1014500099409E40761E16403143F0BC03F0FEBC1E
:101460000CED00E0064900F0070208684FF6FF03A4
:10147000184040EA0220034A104308607047000009
:101480000CED00E00000FA050248006800F4C060BE
:10149000704700000004005803490A6800F0090082
:1014A00082430A607047000008040058024801683F
:1014B00041F4807101607047000400582DE9F0414B
:1014C0000446002700783E4640064FF0B04517D549
:1014D000206B78B1B0F5800F07D0B0F5000F3BD08E
:1014E000B0F5400F38D0012709E0E86840F48030BB
:1014F000E86031E0201D02F089FA07002CD03E465A
:101500002088000546D5D5F8900000F44076206C80
:10151000B0423ED0FFF7CAFF3EB3D5F89000D5F8F1
:10152000901041F48031C5F89010D5F8901021F456
:101530008031C5F89010216C20F440700843C5F844
:101540009000D5F8900010F0010F22D0FFF776FC44
:10155000064641F2883818E0206BD5F8881021F44F
:1015600040010143C5F88810CAE7206CD5F89010F7
:1015700021F440710143C5F890100AE0FFF75EFCCA
:10158000811B414501D9032703E001F07CFF0128BD
:10159000F4D13E462078C00707D0A069D5F888105E
:1015A00021F003010143C5F888102078800707D592
:1015B000E069D5F8881021F440610143C5F888102E
:1015C0002078C00602D5A06A01F0BDFF2078800611
:1015D00002D5E06A01F0B7FF2078400702D5206A03
:1015E00001F0A2FF2078000702D5606A01F09CFF9D
:1015F0002088C00513D5606B01F08DFF606BB0F1E2
:10160000006F03D1E86840F08070E860606BB0F173
:10161000806F04D1201D02F033FA00B10646208805
:1016200080051BD5A06BB0F1804F10D0B0F1004FFA
:101630000DD060B120F08057002001F08FFF3846B8
:1016400001F069FFA06BB0F1C05F03D006E001F0CC
:1016500085FFF7E7E86840F08070E8602088400583
:1016600018D5E06BD5F8881021F040510143C5F83A
:101670008810E06BB0F1005F03D1E86840F480307F
:10168000E860E06BB0F1805F04D1201D02F032FA17
:1016900000B106462088C00407D5606CD5F89410C8
:1016A00021F440410143C5F89410208880040BD5F3
:1016B000E06C696A21F0300101436962A06C696ADB
:1016C00021F00301014369623046BDE8F08100006A
:1016D0002DE9F0410F46050077D0794E306800F0D3
:1016E0000700B84212D2306820F00700384330605B
:1016F000FFF7A4FB044604E0FFF7A0FB001B022851
:101700007DD8306800F00700B842F5D128784FF056
:10171000B044800715D5A868A16821F0F001014305
:10172000A160FFF78BFB804606E000BFFFF786FB5A
:10173000A0EB0800022862D8A068C0F3004000288F
:10174000F4D02878800617D56869D4F8081121F0FC
:10175000F0010143C4F80811FFF770FB804605E073
:10176000FFF76CFBA0EB0800022848D8D4F808016A
:10177000C0F340400028F3D02878400618D5A86967
:10178000D4F8081121F00F0141EA1010C4F8080143
:10179000FFF754FB804605E0FFF750FBA0EB080085
:1017A00002287CD8D4F80801C0F300400028F3D008
:1017B0002878400715D5E868A16821F4E061014365
:1017C000A160FFF73BFB804606E046E0FFF736FBF3
:1017D000A0EB0800022862D8A068C0F340400028AF
:1017E000F4D02878000716D52869A16821F4605143
:1017F00041EAC001A160FFF721FB804606E04EE010
:10180000FFF71CFBA0EB0800022848D8A068C0F333
:1018100080400028F4D02878C0072CD068680228BF
:1018200005D0032806D0A8B101F01EFE05E001F0A6
:1018300015FE02E02068C0F3406070B16868A168DE
:1018400021F003010143A160FFF7F8FA044641F2D9
:1018500088380AE001F02EFEEFE70120BDE8F081B4
:10186000FFF7ECFA011B414519D801F0F1FD696859
:10187000B0EB810FF4D1306800F00700B84215D901
:10188000306820F0070038433060FFF7D7FA04468D
:1018900007E000BFFFF7D2FA001B022801D903209E
:1018A000DCE7306800F00700B842F3D100F00CF834
:1018B00004490860FFF7CEFABDE8F041FFF74ABDE2
:1018C000004000586400002010B500F00FF84FF001
:1018D000B0418968044A01F0F00102EB9101096806
:1018E000B0FBF1F010BD0000B46400082DE9F04138
:1018F00001F0AEFD204F38B3204C04282CD06600F8
:101900004FF0B045082829D001F0FFFD022808D08B
:1019100003282AD001F0C5FD00F0F00007EB90008D
:101920000468E868E968C0F30620604301F07002CB
:10193000012101EB1212B0FBF2F2E86801EB5070EA
:10194000B2FBF0F0BDE8F08101F0ABFD00F0F0007B
:1019500007EB90000068F5E72046F3E72868C0F33E
:1019600000500028F8D13046ECE72868C0F300505A
:101970000028D6D13446D4E7F46400080024F400EB
:101980002DE9F04104007DD020784FF0B04580066D
:1019900061D501F05DFD064601F0B7FD76B10C2E74
:1019A00001D101280AD0E0690028286842D040F01F
:1019B00001002860FFF742FA064630E001F07AFDA8
:1019C00010B1E0690028DED001F06BFD0146606ACD
:1019D00081420AD202F010F9002853D1606A01F066
:1019E00078FD206A01F06CFD09E001F072FD206ACB
:1019F00001F066FD606A02F0FFF80028EDD1FFF704
:101A000063FFF7490860F7480068FFF7A3FC002868
:101A1000E3D120E0FFF712FA801B022874D801F00E
:101A200049FD0028F6D0606A01F053FD206A01F0FC
:101A300047FD10E020F001002860FFF7FFF906469F
:101A400005E000BFFFF7FAF9801B0228E6D801F095
:101A500031FD0028F6D12078C0073CD001F0F8FC19
:101A6000064601F052FD082E13D00C2E01D103289A
:101A70000FD06068B0F5803F286811D020F4803026
:101A8000286000E008E26068C0B1FFF7D7F90646B9
:101A90000FE001F0E3FCF0B16068002893D01AE099
:101AA00040F48030ECE700BFFFF7C8F9801B6428E2
:101AB000B4D801F0D3FC0028F6D00CE0FFF7BEF953
:101AC000064604E0FFF7BAF9801B6428A6D801F0A7
:101AD000C5FC0028F6D1207880073CD501F0B8FC81
:101AE000064601F012FD042E0FD00C2E01D1022863
:101AF0000BD0E068002828681CD040F48070286073
:101B0000FFF79CF9064610E03AE101F0ADFC10B198
:101B1000E0680028C2D0206901F0ACFC1BE000BFE7
:101B2000FFF78CF9801B022890D801F09DFC00285B
:101B3000F6D0F0E720F480702860FFF77FF90646C2
:101B400005E000BFFFF77AF9801B0228B0D801F04A
:101B50008BFC0028F6D12068010701D4C1064ED5C0
:101B60006169E1B3C0064BD501F094FC98B9D5F892
:101B7000940040F00100C5F89400FFF75FF90646B5
:101B800005E000BFFFF75AF9801B022890D801F04A
:101B900081FC0028F6D0D5F8940040F00400C5F888
:101BA0009400FFF74BF9064605E000BFFFF746F942
:101BB000801B03288AD8D5F89400C0F3C000002801
:101BC000F4D0A069D5F8941021F4706141EA0020A6
:101BD000C5F89400D5F8940020F0010000E035E04D
:101BE000C5F89400FFF72AF9064604E0FFF726F946
:101BF000801B022898D801F04DFC0028F6D14EE059
:101C0000D5F8940040F00100C5F89400FFF716F9EC
:101C1000064604E0FFF712F9801B022884D801F081
:101C200039FC0028F6D0D5F8940020F00400C5F85F
:101C3000940004E0FFF702F9801B032886D8D5F84A
:101C40009400C0F3C0000028F4D128E0D5F8940037
:101C500020F00400C5F89400FFF7F0F8064604E011
:101C6000FFF7ECF8801B032890D8D5F89400C0F358
:101C7000C0000028F4D1D5F8940020F00100C5F888
:101C80009400FFF7DBF8064605E000BFFFF7D6F843
:101C9000801B022874D801F0FDFB0028F6D12078C3
:101CA000400750D5504F3868C0050DD4FFF7FEFBF4
:101CB000FFF7C4F8064604E0FFF7C0F8801B0228CF
:101CC0005ED83868C005F7D5A068012816D0052869
:101CD000D5F8900017D020F00100C5F89000D5F895
:101CE000900020F0040000BFC5F89000A06841F209
:101CF0008836C8B1FFF7A2F807460EE0D5F8900085
:101D000040F00100F0E740F00400C5F89000F5E76E
:101D1000FFF794F8C01BB04232D8D5F89000C0F35A
:101D200040000028F4D00EE0FFF788F8074604E0F2
:101D3000FFF784F8C01BB04222D8D5F89000C0F35A
:101D400040000028F4D1207840062ED5A06A002853
:101D5000D5F8980015D040F00100C5F89800FFF7BD
:101D60006DF8064605E000BFFFF768F8801B022803
:101D700006D8D5F89800C0F340000028F4D014E04D
:101D800089E020F00100C5F89800FFF757F80646F3
:101D900005E000BFFFF752F8801B02287BD8D5F87A
:101DA0009800C0F340000028F4D1E06AF0B301F0DD
:101DB0004FFB0146E868E26A022A19D00C296BD071
:101DC000286820F080702860E86820F00300E86050
:101DD000E86806490840E860FFF730F8044687E005
:101DE000640000205C00002000040058FFFFFEEEAD
:101DF000236B00F003029A421AD1636B00F0700269
:101E00009A4215D1A26BC0F306239A4210D1E36B1C
:101E100000F478129A420BD1236C00F060629A426F
:101E200006D1626C00F06040904200E056E03ED087
:101E30000C2962D0286840015FD4286820F08070A7
:101E40002860FEF7FBFF064605E000BFFEF7F6FF41
:101E5000801B022849D828688001F7D4D4E90C01F6
:101E60000843D4E90E2141EA02210843216C0843CA
:101E7000616C0843E968224A11400843E860286819
:101E800040F080702860E86840F08050E860FEF71D
:101E9000D5FF044607E028E02FE000BFFEF7CEFFA5
:101EA000001B022821D828688001F7D523E0286884
:101EB000800120D4286840F080702860E86840F0F5
:101EC0008050E860FEF7BAFF044604E0FEF7B6FF74
:101ED000001B022809D828688001F7D50BE000BF55
:101EE000FEF7ACFF001B022802D90320BDE8F081F9
:101EF00028688001F4D40020F8E70120F6E700000C
:101F00008C80C1112DE9F74F044690F820008B46D4
:101F100001281CD04FF0010884F82080022084F8AA
:101F200021002168CA204862216853204862206845
:101F300080684FF0000540054FF0FF064FF0030AA0
:101F40004FF47A790FD5FEF779FF074607E00220B4
:101F5000BDE8FE8FFEF772FFC01B484519D8206808
:101F6000C0684007F6D42068816821F480618160F0
:101F70002068C16801F0800161F49061C160FEF7E2
:101F80005DFF07460DE000BFFEF758FFC01B484548
:101F900007D92068466284F821A084F820500320E5
:101FA000D6E72068C0684007EED52168C1F814B0B4
:101FB0002068816821F00701816020688168029AA9
:101FC000114381600E48016841F4002101600C4812
:101FD0008038016841F4002101602068816841F483
:101FE000804181602068816841F48061816020685F
:101FF000466284F8218084F820500020A8E7000081
:10200000800800582DE9F041040052D094F82100D6
:10201000002620B984F82060204600F057F80220FE
:1020200084F821002168CA20486221685320486250
:10203000204601F007FEFF2504270028206803D072
:10204000456284F8217034E081681F4A1140816044
:10205000216888686268A369104322691A431043A3
:1020600088602168E068086120680169228941EA86
:10207000024101612068C16821F08001C1602068CF
:10208000C16C21F00301C164E1696069014320680A
:10209000C26C1143C1642068806880060CD420465D
:1020A00000F040F840B12068456284F8217084F85F
:1020B00020600120BDE8F08120684562012084F89D
:1020C00021000020F6E70000BFFF8FFF10B594B09D
:1020D000044650216846FEF778F911492068884285
:1020E0001CD1C0140090C01010906846FFF7E6F9AC
:1020F00008B1FEF765FD4FF0B04050F8901F41F475
:10210000004101604FF4806001F073F90022114634
:102110000320FFF787F90320FFF769F914B010BD1A
:102120000028004070B504460068C16821F0A00195
:10213000C160FEF783FE05464FF47A7607E000BFE4
:10214000FEF77CFE401BB04201D9032070BD206821
:10215000C0688006F4D5002070BD70B5040009D0B9
:10216000606A002540B125616561A56294F85D0053
:1021700040B10CE0012070BD6068B0F5827FF4D002
:10218000E561F2E784F85C50204600F057F8022041
:1021900084F85D002068016821F040010160E16879
:1021A0004FF4E062914201D9002001E04FF48050E9
:1021B000B1F5706F02D0914200D0A562A18822894A
:1021C00001F4827102F404421143227C02F0020203
:1021D0001143227D02F001021143228B02F40072AE
:1021E0001143227F02F03802114394F8202002F0BC
:1021F00080021143228D02F40052114322681160C3
:10220000A169042202EA114194F8242000F48050CC
:1022100002F01002114394F8342002F00802114336
:10222000A28902F47062114301432068416025666F
:10223000012084F85D00002070BD000010B586B05C
:10224000044614216846FEF7C0F80D49206888420C
:1022500013D1801401F0D7F8012001F0B6F8E02086
:10226000009002200190002002900390052004902D
:1022700069464FF09040FEF7DDFC06B010BD00004F
:10228000003001402DE9F84F044690F85C0000272B
:102290001D461646894601280DD04FF0010B84F8E3
:1022A0005CB0FEF7CBFD804694F85D00BA4601288D
:1022B00004D00227A4E00220BDE8F88FB9F1000F96
:1022C00074D0002E72D0032084F85D00C4F860A0A2
:1022D000C4F83890A687E687C4F840A0A4F844A0C4
:1022E000A4F846A0C4F850A0C4F84CA0A068B0F56B
:1022F000004F09D12068016821F040010160206889
:10230000016841F48041016020680168490603D4F6
:10231000016841F040010160E068B0F5E06F60687D
:1023200023D908B1012E1CD1A06B21680088C86098
:1023300006E020688168890709D5A16B0988C1601A
:10234000A06B801CA063E08F401EE08709E0FEF7D1
:1023500075FDA0EB0800A84202D3681C01D046E03E
:10236000ADB3E08F0028E4D136E008B1012E30D1C2
:10237000E08F0128A06B03D921680088C8600FE0B6
:1023800021680078087314E0E08722E02068816803
:10239000890714D5E18F0129A16B08D90988C1608B
:1023A000A06B801CA063E08F801EEDE727E009781A
:1023B0000173A06B401CA063E08F401EE4E7FEF7B2
:1023C0003DFDA0EB0800A84202D3681C01D00EE03E
:1023D0006DB1E08F0028D9D142462946204601F050
:1023E000C5FD08B120202066A06810B105E00327D4
:1023F00006E02068C16880680090206E00B1012767
:1024000084F85DB084F85CA0384655E710B5401EEE
:10241000B0F1807F01D3012010BD4FF0E024606156
:102420000F21601702F01AFD0020A0610720206133
:10243000002010BD704770477047000030B590F81D
:102440003C20012A46D0012280F83C20CA688C68D2
:1024500022F4407222434C6822F4806222430C68CA
:1024600022F4006222430C6922F4805222434C6918
:1024700022F4005222430C6B22F4804222430C8B44
:1024800022F4702242EA0442144D04680023AC4254
:1024900005D100BFCD6922F0805242EA050213D176
:1024A0000D8D22F4700242EA05520D6A22F080720C
:1024B00042EA05024D6A22F0007242EA0502C96A48
:1024C00022F0005242EA0102626480F83C304FF090
:1024D000000030BD4FF0020030BD0000002C014074
:1024E000F0B590F83C20012A1BD0012480F83C4034
:1024F000022280F83D2003685A689D68104EB3425E
:1025000003D122F470074A683A4322F070070A6840
:102510003A435A600268B24205D0B2F1804F02D00D
:1025200006E00220F0BD896825F080031943916020
:1025300080F83D40002180F83C100846F0BD0000C6
:10254000002C014010B5040003D094F83D0010B1F8
:1025500007E0012010BD002084F83C00204600F078
:1025600023F8022084F83D00211D206802F09EF827
:10257000012084F8480084F83E0084F83F0084F885
:10258000400084F8410084F8420084F8430084F855
:10259000440084F8450084F8460084F8470084F835
:1025A0003D00002010BD000010B5006808498842B9
:1025B0000CD1C01400F027FF002211461920FEF7AD
:1025C00031FFBDE810401920FEF711BF10BD00001B
:1025D000002C014070B5044690F83C00002501280D
:1025E00017D0012684F83C60022084F83D00226860
:1025F00090682F4B184020F47F4090600868502866
:1026000038D00DDC20284FD005DC90B3102811D134
:102610004AE0022070BD302846D040280AD13BE075
:1026200060282FD070280DD0B0F5805F03D0B0F5B2
:10263000005F12D0012584F83D60002084F83C0042
:10264000284670BDCB68D1E90121206802F071F8FD
:102650002068816841F0770109E0CB68D1E9012168
:10266000206802F066F82068816841F4804181604A
:10267000E1E719E0CA684968206802F0ADF9502125
:10268000206806E0CA684968206802F0B6F960214F
:10269000206802F059F8CEE7CA684968206802F05D
:1026A0009BF940212068F4E7226801461046F0E7D4
:1026B00088FFCEFF704770B50446006801694FF08F
:1026C0000005C943890715D4C168C943890711D4D6
:1026D000E91E01610120207720688069800720467B
:1026E00002D0FFF7E7FF04E000F0CAF8204600F050
:1026F0008CF9257720680169C943490717D4C16857
:10270000C943490713D46FF0040101610220207707
:102710002068806910F4407F204602D0FFF7CAFF8E
:1027200004E000F0ADF8204600F06FF9257720684E
:102730000169C943090716D4C168C943090712D4FE
:102740006FF008010161042020772068C0698007CC
:10275000204602D0FFF7AEFF04E000F091F82046DB
:1027600000F053F9257720680169C943C90617D4D9
:10277000C168C943C90613D46FF010010161082074
:1027800020772068C06910F4407F204602D0FFF710
:1027900091FF04E000F074F8204600F036F9257748
:1027A00020680169C943C90708D1C168C943C9077D
:1027B00004D1891E0161204600F08EF9206801696C
:1027C000C943090609D4C168C943090605D46FF095
:1027D000800101612046FFF72EFE20680169C94390
:1027E000C90509D4C168C943090605D46FF48071CD
:1027F00001612046FFF71EFE20680169C9434906B2
:1028000009D4C168C943490605D46FF0400101618C
:10281000204600F062F920680169C94389060BD49B
:10282000C168C943890607D46FF0200101612046C1
:10283000BDE87040FFF700BE70BD000010B586B067
:10284000044614216846FDF7C0FD0C492068884203
:1028500011D1012000F0B9FD4FF4806000900220FA
:1028600001900020029003900120049069464FF0EF
:102870009040FEF7DFF906B010BD0000002C0140CB
:10288000704770B5044690F83C0000260D460128BC
:102890000BD0012084F83C000C2A4AD007DC82B11E
:1028A000042A20D0082A06D131E0022070BD102A67
:1028B00053D0142A63D00126002084F83C0030460F
:1028C00070BD206801F04AFF2068816941F008016D
:1028D00081612068816921F004018161206881693A
:1028E0002A69114311E0206801F074FF20688169B2
:1028F00041F4006181612068816921F48061816116
:10290000206881692A6941EA02218161D4E720684F
:1029100001F09CFF2068C16941F00801C161206895
:10292000C16921F00401C1612068C1692A691143AC
:1029300011E0206801F0C4FF2068C16941F4006122
:10294000C1612068C16921F48061C1612068C169E9
:102950002A6941EA0221C161AEE7206801F0E0FF87
:102960002068416D41F0080141652068416D21F00A
:10297000040141652068416D2A69114311E0206816
:1029800001F0FCFF2068416D41F400614165206861
:10299000416D21F4806141652068416D2A6941EAF9
:1029A0000221416588E710B5040003D094F83D008A
:1029B00010B107E0012010BD002084F83C00204643
:1029C00000F022F8022084F83D00211D206801F06B
:1029D0006DFE012084F8480084F83E0084F83F0032
:1029E00084F8400084F8410084F8420084F84300F1
:1029F00084F8440084F8450084F8460084F84700D1
:102A000084F83D00002010BD7047704710B50446A3
:102A1000022269B1042912D0082917D00C291CD030
:102A2000102921D094F84300012824D0012010BDA2
:102A300094F83E000128F9D184F83E201DE094F876
:102A40003F000128F2D184F83F2016E094F84000BE
:102A50000128EBD184F840200FE094F841000128D0
:102A6000E4D184F8412008E094F842000128DDD147
:102A700084F8422001E084F843200122206801F01C
:102A80004BFE11492068884205D0104A904202D07E
:102A90000F4A904203D1426C42F4004242642068E3
:102AA000884202D0B0F1804F07D18168094A1140B5
:102AB000062906D0B1F5803F03D0016841F001013D
:102AC0000160002010BD0000002C014000440140C6
:102AD0000048014007000100704770477047704789
:102AE000FEF7C0B970470000014880680047000049
:102AF000880000200248416821F0010141607047D0
:102B0000000C005838B50D4C0FE069460C4800F039
:102B100055FD0099487A0F280DD00E280BD00320C0
:102B200000F058FF616800988847054800F03AFDBA
:102B30000028EAD038BD0220F2E70000880000201B
:102B40006001032002494FF4803088607047000024
:102B5000000C005808B54FF0B040D0F8501141F4C7
:102B60008011C0F85011D0F8500100F4801000908E
:102B70000948016841F4007101600748B4380168F0
:102B800041F40071016040BF20BF0448016841F476
:102B90000041016008BD0000D40800580C04005832
:102BA00008B54FF0B040016D41F480110165006D32
:102BB00000F4801000900848016841F001010160B4
:102BC000016841F4803101602C20FEF710FCBDE863
:102BD00008402D20FEF70BBC000C005870B5094DC5
:102BE00004460821284600F018FC30B1064804606D
:102BF000686820F40020686070BDA0474FF4002092
:102C0000A86070BD000C00588400002070B5154C01
:102C10000221204600F015FC251D38B12868C0436C
:102C2000800703D500F032F802200BE00121204696
:102C300000F007FC40B12868C043C00704D0FFF78C
:102C400061FF0120A06070BD0821204600F0F9FB63
:102C50000028F8D02868C0430007F4D500F042F8F7
:102C60000820EFE7000C005810B5064CE06801683A
:102C7000052000F0AFFEE06803490068C968BDE8C0
:102C800010400847000003208800002038B5094C98
:102C90000AE06946084800F091FC0620009900F01F
:102CA00099FE216900988847034800F07BFC0028C2
:102CB000EFD038BD88000020680103200248416839
:102CC00021F0020141607047000C005804484FF4A5
:102CD00000318160416821F400314160704700009B
:102CE000000C005808B506E06946064800F066FC8E
:102CF000009801F047FF034800F054FC0028F3D08F
:102D000008BD0000580103200248416821F0080175
:102D100041607047000C005870B51B4C02212046E2
:102D200000F07BFB251D50B92868C043800306D501
:102D3000606840F400306060FFF796FF70BD0821C6
:102D4000204600F06AFB70B92868C04300030AD52A
:102D5000606840F4002060600C48006880474FF4D1
:102D60000020A06070BD2021204600F056FB002806
:102D7000F8D12868C0438002F4D5606840F40010A0
:102D80006060FFF7B1FE70BD000C005884000020A9
:102D90002DE9F041414CCA22A1600B685A620B68D0
:102DA00053225A623E4A136843F0200313601268AC
:102DB0003B4E02F00702C2F104030836237032686A
:102DC0004FF4FE0595FAA5F502F4FE02B5FA85F575
:102DD000EA40521CD5B265703268C2F30E02521C32
:102DE0006280521E6A43A2F5A072DA404FF6FF736A
:102DF0009A4201D3A38000E0A2802A4A4FF4002324
:102E0000156845F400251560264A8032156845F49A
:102E100000251560A0B10868C068400502D50320F0
:102E2000FEF7F2FAA168FF20096848620321002238
:102E30000846FEF7F7FABDE8F0410320FEF7D7BADF
:102E4000194A01209070801E50600020054602F152
:102E5000080600BF00EB400706EBC7073D73401CA8
:102E6000C0B20628F6D3062010700868826822F4E3
:102E7000806282600868C16801F0800161F490613D
:102E8000C16008480C3003600320FEF792FAA06886
:102E90000068816841F480418160C3E74C000020F4
:102EA0000828004000080058CC010020104700000E
:102EB0002DE9F05FEFF3108472B6CA272B4DA86896
:102EC00001684F6202684FF05308C2F8248001681D
:102ED0008A6822F480628A60254A92F8009002F1A2
:102EE000080309EB490103EBC10696F80CC0BCF1DD
:102EF000020F0BD00068C16801F0800161F490619D
:102F0000C1601C494FF40020086026E053F831B03E
:102F1000D6F810A09078F0B1707B012810D084F31F
:102F20001088484600F068F8A86801684F62006899
:102F3000C0F824805A4649465046FFF7B7FF0EE0D6
:102F40000121484601F05CFF84F31088716848460F
:102F500000F012F8E8E700F0A1FE84F31088A968F9
:102F6000FF2009684862BDE8F09F00004C00002087
:102F7000CC0100200C0800582DE9F0410E46804697
:102F800000EB48011A4800EBC104207B022802D163
:102F9000404600F031F8EFF3108572B60320FEF7DB
:102FA00015FA144FCA21B8680268516200685321AB
:102FB000416202202073A6606660404602F0E2FB98
:102FC0000B4908390A784978914202D000F066FE30
:102FD00002E0A168081AA060B968FF200968486289
:102FE0000320FEF704FA85F31088BDE8F0810000A5
:102FF000D40100204C00002070B50646EFF3108588
:1030000072B60320FEF7E2F9254CCA21A0680268D7
:103010005162006853214162224906EB460001EBF0
:10302000C000007B02280DD10021304601F0E8FEEF
:103030001C490839087806280ED04978814201D009
:1030400000F02CFEA168FF20096848620320FEF70B
:10305000CEF985F3108870BD13480068C043400561
:1030600004D4A0680068C1684907FCD4A06801685E
:103070008A6822F480628A600168CA685207FCD5B7
:103080000846C96801F0800161F49061C160074998
:103090004FF4002008600320FEF78BF9D2E7000010
:1030A0004C000020D4010020082800400C080058E3
:1030B000FEE701688A69D243920701D400228A623E
:1030C00000688169C943C90703D0816941F00101E2
:1030D000816170472DE9F0470446006888469146B3
:1030E000816900263546C9064FF0200728D541687A
:1030F000890114D4416841F4804141600FE000BF70
:10310000B8F1FF3F0BD0FDF799FEA0EB0901414557
:1031100002D8B8F1000F02D145F020050126206841
:103120008069C043800602D5002EE9D002E00EB9C6
:103130002068C76121681020C86145F00405012698
:1031400021688869C20505D54FF4807245F00105F4
:10315000CA610126410509D522684FF4806145F016
:103160000805D1610126800502D40AE0800507D553
:1031700020684FF4007145F00205C161012600E0AE
:1031800086B12046FFF795FF54F8440B4168074A83
:10319000114041602068284344F8200967770020E7
:1031A000A07720773046BDE8F087000000E800FEF9
:1031B00010B5C1F3090141EA02410268029C1943BA
:1031C0002143506821F000414FF4806303EA5453D7
:1031D000024C234398430843506010BDFF63FF0334
:1031E0002DE9F0411D4617460E460446DDF81880CD
:1031F00008E0681C06D0FDF721FEA0EB0800A842FD
:103200000BD855B12068806936EA000012D0002042
:10321000B842EED00020BDE8F08154F8440F40F0F1
:10322000200044F80409202060700020A070207065
:103230000120F0E70120EBE72DE9F0410026904660
:103240000F460446202525E0424639462046FFF732
:1032500041FF78BB20688069C043800613D4206892
:103260008169C943490701D4218DC1B9C56154F8A9
:10327000440B4168104A1140416044F82069657769
:10328000A677267716E0FDF7D9FDA0EB0800B84237
:1032900008D83FB120688069C0434007D4D40020DB
:1032A000BDE8F08154F8440F40F0200044F80409D0
:1032B000657026700120F3E700E800FE70B5164641
:1032C0000D4604460DE0324629462046FFF702FF30
:1032D00008B1012070BDFDF7B1FD801BA84207D8E1
:1032E00035B120688069C0438006ECD4002070BDF1
:1032F00054F8440F40F0200044F804092020607086
:103300000020A0702070E4E770B516460D46044614
:103310000FE0324629462046FFF7DCFE08B10120C7
:1033200070BD681C05D0FDF789FD801BA84207D839
:1033300035B120688069C0438007EAD4002070BDA1
:1033400054F8440F40F0200044F804092020607035
:103350000020A0702070E2E77047FFF757BCFFF72E
:10336000DBBC002101604FF03F1141603F218160D3
:103370007047000010B5054C054B002100EB8102A1
:10338000491C5460D3610629F8D310BD15130008F9
:103390001713000801480168016070479008005841
:1033A000704708B54FF0B041CA6C0243CA64C96C9B
:1033B0000140009108BD08B54FF0B041CA6C02430E
:1033C000CA64C96C0140009108BD08B54FF0B04116
:1033D000CA6C0243CA64C96C0140009108BD08B5BB
:1033E0004FF0B0410A6D02430A65096D014000913A
:1033F00008BD08B54FF0B0418A6D02438A65896DFA
:103400000140009108BD08B54FF0B0410A6E02437B
:103410000A66096E0140009108BDC068814301D071
:10342000002070470120704708B54FF0B041D1F837
:103430004C210243C1F84C21D1F84C1101400091BC
:1034400008BDC069814301D000207047012070474A
:103450004FF0B040806800F00C0070474FF0B04073
:103460000068C0F3404070474FF0B0400068C0F3C0
:10347000802070474FF0B0414A6822F0FE4242EA95
:103480000060486070474FF0B040D0F89000C0F343
:10349000400070474FF0B040D0F89400C0F34000B7
:1034A00070474FF0B040006800F0F000B02800D93D
:1034B000B02070474FF0B0400068C0F34000704744
:1034C0004FF0B0414A6822F47F4242EA002048604F
:1034D00070474FF0B0410A6822F0F00202430A60E0
:1034E00070474FF0B040016821F080610160704783
:1034F0004FF0B040016841F08061016070474FF0CB
:10350000B0400068C0F3C06070474FF0B040C06882
:1035100000F0030070474FF0B04151F8882F22F0BF
:10352000406202430A60704710B54FF0B04151F855
:10353000883F4FF47F2202EA1014A34302EA0010EE
:1035400003430B6010BD4FF0B04151F8882F030CBE
:103550001B049A4342EA0040086070474FF0B041B4
:1035600051F8882F22F0404202430A607047006001
:1035700040607047EFF3108272B603680B604860DA
:1035800001600868416082F310887047EFF3108291
:1035900072B6086043684B6041604868016082F31E
:1035A00010887047EFF3108172B60268824201D131
:1035B000012000E0002081F31088704710B5EFF380
:1035C000108472B602680A60006800F003F884F3A1
:1035D000108810BDEFF3108172B6026843681A605C
:1035E00042680068426081F31088704770B50D4AE8
:1035F000157802F1080401EB410204EBC20300EB71
:10360000400204EBC202A94208D01D7D05EB45062D
:1036100004EBC60460755175157500E05175187599
:1036200070BD0000CC010020704770470C4910B5F8
:103630004FF40040086100F07FFB002000F0B2F979
:1036400000280BD081794FF0B040064A40F89C2FFB
:10365000026822F47C5242EA0121016010BD0000A0
:1036600000400058FECAFECA00B589B0FFF792FEBE
:103670002248CA21416253214162816821F0070139
:103680008160FF2141624FF0B040816841F4004108
:10369000816001F0B7FA1A48016821F0070141F092
:1036A0000401016017490020FFF772FBFCF702FFDD
:1036B0000121084601F0AEFA01F0E6F9124A0021B4
:1036C000042001F0CDFA114806901148079006A990
:1036D000104802F063F910480090A0F58670019040
:1036E000A0F5C960029040F23C500390684601F09A
:1036F000FBF901F0C7F909B000BD00000028004047
:10370000800400586C0300206D5A00081C07032039
:10371000B9050008BD050008340903204FF0FF304B
:1037200001F0BABAF0B585B014216846FCF74DFE39
:103730000420FFF736FE0220FFF733FE0120FFF7DB
:1037400030FE4FF0904600220C213046FDF770FB12
:10375000012241F210013046FDF76AFB174F0022AB
:1037600020213846FDF764FB022000904FF48810BA
:103770000024CDE9010469463046FDF75BFA41F2C9
:103780001C0000900125CDE90154694630460394A0
:10379000FDF750FA20200090CDE9015469463846E3
:1037A0000394FDF747FA002211460720FDF73AFE81
:1037B0000720FDF71CFE05B0F0BD00000004004826
:1037C000124810B5104901601149416000210122E1
:1037D000C0E90212016141618161C1610162FDF7CD
:1037E000A5FB08B172B6FEE700210848FDF74AFBC9
:1037F00008B172B6FEE700210448FDF76EFB002811
:1038000001D072B6FEE710BD00540040E402002073
:10381000380F30000F4810B50D49016000210F220C
:10382000C0E9011247F6FF72C0E903218161C1615D
:103830004161FEF7E7FB08B172B6FEE700221146D0
:103840000448FEF75FFB002801D072B6FEE710BD0A
:10385000002800406C030020114810B50F4901609A
:103860004FF48271416000214FF4E062C0E902121E
:103870004FF400720161C0E905120822C0E9072176
:1038800007234162C0E90A13C0E90C12FEF765FC88
:10389000002801D072B6FEE710BD000000300140E4
:1038A0009003002010B59CB0002419941A9417942A
:1038B0001894149415941C210DA81694FCF785FDFA
:1038C00034216846FCF781FD2C482B490160032117
:1038D000C0E901146321C0E9031444618461FEF767
:1038E00031FE08B172B6FEE74FF48050179017A969
:1038F0002248FEF76FFE08B172B6FEE71F48FFF7D9
:1039000052F808B172B6FEE7202014900004CDE909
:10391000150414A91948FEF7E3FD08B172B6FEE7D5
:103920006020CDE90D040F94109411941294082294
:103930000DA912481394FEF7A4FF08B172B6FEE772
:1039400000944FF40050CDE9044003940003CDE906
:10395000084001940294069407940A940B946946D3
:1039600006480C94FEF76AFD08B172B6FEE70348FC
:10397000FEF764FF1CB010BD002C0140F4030020D2
:10398000FEE7FEE70549496818B1002905D0012086
:103990000847002901D00020FAE77047A400002062
:1039A0007047000001460748074B00E00838C2791D
:1039B0008A4201D09842F9D1D2B28A4200D0002086
:1039C00070470000F873FF1F0070FF1FFCF79ABCE0
:1039D000FCF7CEBC70477047704700B595B05021DA
:1039E0006846FCF7F2FC4FF4405000904FF48040E2
:1039F000119000201290102013906846FDF75EFD94
:103A0000002801D072B6FEE715B000BD2DE9F041E7
:103A100006460025FFF765FDFDF710FA044604E0B1
:103A2000FDF70CFA001B02281DD8FFF768FD0028DF
:103A3000F6D14FF0B0442069316820F4FE4040EAEE
:103A4000012020612069716820F47810084320610A
:103A5000FFF74EFDFDF7F2F9074606E0FDF7EEF938
:103A6000C01B022801D9032507E0FFF748FD012804
:103A7000F4D120693169084320612846BDE8F0810E
:103A80002DE9F04106460025FFF72BFDFDF7D6F99D
:103A9000044604E0FDF7D2F9001B02281DD8FFF709
:103AA0002EFD0028F6D14FF0B0442069316820F493
:103AB000FE4040EA012020612069B16820F060608A
:103AC00008432061FFF714FDFDF7B8F9074606E04B
:103AD000FDF7B4F9C01B022801D9032507E0FFF761
:103AE0000EFD0128F4D12069316908432061284680
:103AF000BDE8F0812DE9F04106460025FFF7F1FC15
:103B0000FDF79CF9044604E0FDF798F9001B022834
:103B10001DD8FFF7F4FC0028F6D14FF0B04420691F
:103B2000316820F4FE4040EA012020612069F168FC
:103B300020F0604008432061FFF7DAFCFDF77EF9D2
:103B4000074606E0FDF77AF9C01B022801D90325D4
:103B500007E0FFF7D4FC0128F4D12069316908435C
:103B600020612846BDE8F08170B5214A8EB00DF184
:103B7000100C78CA8CE8780038CA08AE86E838009D
:103B80003CCA8DE83C000024B1F5007F6A4621461E
:103B900007D008AB53F8215085420BD352F821408F
:103BA0000BE004AB53F821508542F7D2491C04299D
:103BB000F8D302E0491C0329ECD30E4E306820F004
:103BC000070020433060FDF739F9054608E000BFE3
:103BD000FDF734F9401B022802D903200EB070BD56
:103BE000306800F00700A042F2D10020F6E70000A4
:103BF000886400080040005810B50F49B02801D96A
:103C0000C86A03E03C2202EA900008584FF0B04135
:103C1000D1F80811094A01F00F0152F82110B0FB48
:103C2000F1F4FDF731FC01460548B4FBF0F0BDE8C6
:103C30001040FFF799BF0000F4640008B464000866
:103C400040420F0070B504460068C168490614D4AC
:103C50004FF0FF31C160FDF7F1F805464FF47A7679
:103C600007E000BFFDF7EAF8401BB04201D903208E
:103C700070BD2068C0684006F4D5002070BDFFF715
:103C800017B90000044A106881B2106880B28142FE
:103C900001D00146F9E77047282800402DE9F0419E
:103CA000224800682249C0434205886803D402685C
:103CB000D3685B07FCD400688846816821F4806182
:103CC00081601C4E347806F1080704EB440007EBD2
:103CD000C000856800F0AEF800234FF0010C85426B
:103CE00001D200220AE0B8F8042041460244AA4268
:103CF00002D28A88B37012E0291A8AB286F802C00A
:103D00000DE000BF04EB440107EBC1018C68844265
:103D100001D28B6002E08C68241A8C604C7D062CEA
:103D2000F0D1BDE8F041104600F042B8082800404C
:103D30004C000020CC01002038B54FF0B044D4F83E
:103D40009400C0F38060A0B1D4F89400C0F3007078
:103D500078B9FDF7ABFBFDF7A9FBD4F8900040F470
:103D60008030C4F89000D4F8900020F48030C4F87B
:103D70009000206D40F480102065206D3F2100F4FC
:103D800080100090094881608161416841F47C1194
:103D90004160416941F47C114161416841F03F015A
:103DA0004160416941F03F01416138BD000C00585C
:103DB00070B51C4E04002CD01B4D012C02D8287865
:103DC000012801D0641EA4B2A8680168CA6852071D
:103DD000FCD50846C96801F0800161F49061C160BA
:103DE00012494FF4002008600320FDF7E2FA104862
:103DF00001686FF30F0121430160FFF743FF70601B
:103E0000A8680068816841F480618160AFF3008038
:103E100070BDFFF737FF7060BDE870400320FDF70D
:103E2000F3BA0000CC0100204C0000200C08005820
:103E30001428004010B50B4C6068401C10D0FFF7F0
:103E400021FF62680849824202D36268101A03E0C7
:103E50004A88101A626810444A7809785043C8406A
:103E600080B210BDCC0100204C0000200021020CCB
:103E700001D110210004020E01D100020831020F0D
:103E800001D10001091D054A02EB107000780844B9
:103E9000C0B2C0F11F00C0B2704700008D650008BD
:103EA0001FB500F10C026B4625214FF6664001F06C
:103EB000AFFD9DF80E0004B010BD1FB502466B4665
:103EC0000E214FF6754001F0A3FD9DF80E0004B0E1
:103ED00010BD1FB500F10C026B460F214FF6684074
:103EE00001F096FD9DF80E0004B010BD70B51C49A0
:103EF000C96B1C4AC1F30D011B4D52F821301C68DF
:103F0000AC4205D103F11401D3E9034326C906E00D
:103F100052F8213019695A699D695C689B680E0ED8
:103F200006700E0C46700E0A8670C1F30316C6703A
:103F300001F00F010171110E4171110C8171110A13
:103F4000C17102724572210E8172210CC172210A67
:103F50000173190E4173190C8173C373002070BD76
:103F60000040005800000320B95646A9F8B5154690
:103F70000E460B460092044600224FF4C05100F05A
:103F800019F888B93346002280212046009500F0B8
:103F900081F848B9334600224FF4C06120460095AD
:103FA00000F008F8002804D0206E40F020002066C1
:103FB0000320F8BD2DE9FE4F4FF0000A9846174642
:103FC0000E4604460C9D8DF804A0FCF737FF411BFC
:103FD000A8EB0105FCF732FF814620684FF4C06B67
:103FE0000C3002902A480068C0EBC00000EB800053
:103FF000000D6843009043E05E4506D12FB902985A
:1040000000788DF804009DF80400B8F1FF3F37D028
:10401000FCF714FFA0EB0900A84203D215B10098E9
:1040200058B32BE02068416821F0E00141606068EE
:10403000B0F5827F0BD1A068B0F5004F02D0B0F58B
:10404000806F04D12068016821F040010160A06AFE
:10405000B0F5005F09D12068016821F400510160CA
:104060002068016841F400510160012084F85D007E
:1040700084F85CA00320BDE8FE8F0025401E009060
:10408000206880683040B842B6D10020F3E70000D5
:10409000640000202DE9F8431E46914688460446F8
:1040A000089DFCF7CBFE401B351AFCF7C7FE074600
:1040B00025480068C0F3CB30684338E0701C37D027
:1040C000FCF7BCFEC01BA84203D215B1009860B338
:1040D0002CE02068416821F0E00141606068B0F5A3
:1040E000827F0BD1A068B0F5004F02D0B0F5806F91
:1040F00004D12068016821F040010160A06AB0F598
:10410000005F09D12068016821F400510160206836
:10411000016841F400510160012084F85D00002035
:1041200084F85C000320BDE8F8830025401E009061
:104130002068816838EA010004D000214945BDD1DA
:104140000020F0E70121F9E76400002070B5294C58
:1041500010F8013F0021264DE28A052B04D03E2BAA
:1041600010D0FF2B42D124E0B0F80300904202D1DE
:10417000E18284F880100120FCF7A8FA0120287061
:10418000E08A0FE010F8022F012A2FD194F8802046
:10419000401C042A0BD0052284F88020B0F80100CE
:1041A000E082297068801248FCF70AFC1EE00622B3
:1041B000F2E7408840F20743A0F20741984215D049
:1041C00008DC042812D0A0F5806001380ED0012848
:1041D0000CD102E0022909D104E00749104600F0A1
:1041E000D7FE03E00121104600F0AAFE012070BDB9
:1041F00068000020F800002007B20100044910B553
:1042000000200877091F087000F068F910BD000051
:104210009C0100202DE9F04F8BB0A94800F054F923
:104220008F208DF81800E5208DF81900B3208DF847
:104230001A00D5208DF81B002E208DF81C007F2041
:104240008DF81D004A208DF81E0098208DF81F0063
:104250002A208DF8200048208DF821007A20102691
:104260008DF822008DF824600024CC208DF82540A4
:104270008DF823008DF82640924F8DF827400523B6
:10428000012206A90220009701F004F8ED254FF065
:10429000190A8DF818A08DF819504FF0820B8DF87F
:1042A0001AB0AE208DF81B008DF81C504FF021087D
:1042B0008DF81D804C208DF81E009D208DF81F006C
:1042C00041208DF8200045208DF821004FF0220973
:1042D0008DF822908E208DF8230011208DF8240077
:1042E0008DF825408DF826408DF82740B81CCDE983
:1042F00004400220CDE90246CDE9000438880423B9
:1043000006AA022100F067FF8DF818A08DF8195059
:104310008DF81AB0AE208DF81B008DF81C508DF86A
:104320001D804C208DF81E009D208DF81F0041201F
:104330008DF8200045208DF821008DF822908E20E8
:104340008DF8230012208DF824008DF825408DF87B
:1043500026408DF82740381D0121CDE904100220A8
:10436000CDE90246CDE900043888202306AA0221BF
:1043700000F031FF8F208DF81800E5208DF819002E
:10438000B3208DF81A00D5208DF81B002E208DF853
:104390001C007F208DF81D004A208DF81E009820FB
:1043A0008DF81F002A208DF8200048208DF821006C
:1043B0007A208DF82200CC208DF8230020208DF863
:1043C00024008DF82540B81D8DF8264000908DF80A
:1043D00027400523012206A9022000F05BFF8DF88B
:1043E00018A08DF819508DF81AB0AE208DF81B006A
:1043F0008DF81C508DF81D804C208DF81E009D20DE
:104400008DF81F0041208DF8200045208DF82100F7
:104410008DF822908E208DF823008DF824808DF861
:1044200025408DF826408DF8274007F1080001222D
:10443000CDE9042007210420CDE90216CDE90004CE
:10444000F888202306AA022100F0C5FE8DF818A0E6
:104450008DF819508DF81AB0AE208DF81B008DF82C
:104460001C508DF81D804C208DF81E009D208DF86D
:104470001F0041208DF8200045208DF821008DF887
:1044800022908E208DF823008DF824908DF8254001
:104490008DF826408DF8274007F10A000122CDE96A
:1044A000042007210420CDE90216CDE90004F88894
:1044B000802306AA022100F08EFE0BB0BDE8F08F2B
:1044C000E10A00087C01002003490A7F41F822002C
:1044D000087F401C087770479C01002010B5FCF74E
:1044E00013F9FCF726F9FCF752FAFCF753FBFCF73B
:1044F00053FBFEF7F3FAFEF7F2FAFEF7F3FAFEF7D4
:104500002BFFFEF74DFF00F04FFBFFF78EF8FFF794
:1045100062FA00F0A2FCFFF743FAFCF70BF9FFF791
:1045200083F8FFF777FE10BD70B50646441C40784F
:10453000FF2819D1608800F47F40B0F5406F13D197
:1045400000250D4C0DE000BF54F82510304688477B
:1045500028B1012802D002280BD0012070BD6D1CAB
:10456000EDB2207FA842EFD83046BDE87040FFF79B
:10457000EDBD002070BD00009C01002070470000D0
:1045800038B5084C08E069460748FFF717F8206976
:1045900000990069FEF7FAFF0348FFF703F80028C7
:1045A000F1D038BD000003209C000020FCF7B4BE11
:1045B00010B59AB048216846FBF707FF1C2112A8E6
:1045C000FBF703FFFCF772FF4FF0B04050F8901F6D
:1045D00021F0180101601A48016821F4C06141F41A
:1045E000007101600068002400F4C0601990272069
:1045F00000904FF48030019001200102CDE90201CA
:10460000079040200490A020CDE9084068460B9414
:10461000FDF7B6F908B172B6FEE76F20CDE91204D6
:104620001494159416941794012112A81894FDF768
:104630004FF8002801D072B6FEE71AB010BD000096
:10464000000400581348016841F4700101604FF004
:10465000B040016841F0010101604FF4E021816048
:1046600001680D4A11400160D0F8941021F0050155
:10467000C0F89410D0F8981021F00101C0F89810FB
:104680000649C160016821F4802101600021816137
:104690007047000088ED00E0FBFEF6FA00100422EF
:1046A0000148FEF708B80000F403002070B5026866
:1046B000164B4FF08046984201D0B04203D122F011
:1046C00070044A682243124C124D984205D0B04201
:1046D00003D0A04201D0A84203D122F44076CA6898
:1046E00032434E6922F08002324302608A68C2621D
:1046F0000A688262984203D0A04201D0A84201D148
:10470000096901630121416170BD0000002C014075
:10471000004401400048014010B501F01F03012191
:10472000046A99408C430462016A9A401143016211
:1047300010BD10B5846842EA032224F47F440A4382
:104740002243826010BD00008268034B1A400A4376
:1047500042F00701816070478FFFCFFFF0B5026A1A
:1047600022F001020262056A43688269154C25F055
:10477000020522400C6822F0030214438A68134E9B
:104780002A43114D124FA84203D0B04201D0B84283
:1047900006D122F0080CCA6842EA0C0222F0040298
:1047A000A84203D0B84201D0B04205D14D6923F4EC
:1047B00040731D438B692B434360846149684163A7
:1047C0000262F0BD8FFFFEFF002C01400048014057
:1047D0000044014030B5026A22F010020262046A0D
:1047E00042688369154D2B400D6823F4407343EAFA
:1047F000052524F020038C6843EA0413104CA042E2
:1048000007D1CC6823F0800343EA041323F040036C
:1048100005E00C4CA04202D00B4CA04207D14C69E1
:1048200022F4406242EA84028C6942EA84024260D5
:10483000856149688163036230BD0000FF8FFFFE20
:10484000002C0140004401400048014030B5026A9C
:1048500022F480720262046A4268C369144D2B40DC
:104860000D6823F003031D4324F400738C6843EAAE
:104870000423104CA04207D1CC6823F4006343EA20
:10488000042323F4806305E00B4CA04202D00B4CC0
:10489000A04207D14C6922F4405242EA04128C69CA
:1048A00042EA04124260C5614968C163036230BDD7
:1048B0008FFFFEFF002C01400044014000480140F2
:1048C00030B5026A22F480520262046A4268C36907
:1048D0000F4D24F400542B400D6823F4407343EA39
:1048E00005238D6844EA05340A4DA84205D00A4DD7
:1048F000A84202D0094DA84204D14D6922F4804259
:1049000042EA85124260C36149680164046230BDB5
:10491000FF8FFFFE002C0140004401400048014091
:1049200030B5026A22F480320262046A4268436D42
:104930000E4D2B400D681D4324F400330C8943EACF
:1049400004430B4CA04205D00A4CA04202D00A4CB2
:10495000A04204D14C6922F4803242EA042242602F
:10496000456549688165036230BD00008FFFFEFF29
:10497000002C0140004401400048014030B5026A6B
:1049800022F480120262046A4268436D0E4D24F4E0
:1049900000142B400D6843EA05230D8944EA0554B1
:1049A0000A4DA84205D00A4DA84202D0094DA8429E
:1049B00004D14D6922F4802242EA85224260436597
:1049C0004968C165046230BDFF8FFFFE002C0140C5
:1049D000004401400048014010B5036A046A24F015
:1049E00001040462846924F0F00444EA021423F010
:1049F0000A020A438461026210BD10B5036A23F003
:104A0000100303628369046A23F4704343EA0232A9
:104A100024F0A00343EA01118261016210BD00008D
:104A200010B504460A48FEF7A2FD0A484168A0688E
:104A30000860E068C8600848486005488860FEF77C
:104A400059F806482168416061688160002010BD06
:104A50006001032000000320480A03208800002092
:104A6000074810B542680121126811724068016858
:104A70000120FEF7AFFFFEF765F8002010BD000033
:104A800000000320FEF766B80C480B490160203196
:104A9000416010318160683901620831416208313A
:104AA000C1606431016178394161943181610C31B7
:104AB000C161FEF775B800007001032000000320FB
:104AC00010B5044601460648FEF760FD2146002069
:104AD000FEF780FFBDE810400248FEF77FB80000F7
:104AE0009C0000208145000810B504460C48FEF7E4
:104AF0003EFD0C48FEF73BFD0B48016909481438A0
:104B00000160A0688860E068C860054808612068A6
:104B1000086060684860206948616069886110BD0C
:104B2000500103209C0000200000032010B5044623
:104B30000848FEF71CFD0848C168A06808600548E1
:104B40004860FEF7BBF805482168C16061680161F3
:104B5000002010BD68010320000003208800002011
:104B6000074810B5C268102112681172C068016848
:104B70000420FEF72FFFFEF7A9F8002010BD00006B
:104B8000000003207047000010B50548FEF7EFFC59
:104B90000449034849690860BDE81040FEF7B4B80D
:104BA0005801032000000320704710B5002000F0DA
:104BB000EFFE10BD10B5417A0F290AD00E2908D09A
:104BC00001460848FEF7E2FCBDE81040054800F049
:104BD0001BBD01460448FEF7D9FC002000F0BCFCD8
:104BE00010BD000090010020AC00002010B501466F
:104BF0000348FEF7CBFCBDE81040014800F0FABEC8
:104C0000C40100200248002101604160704700009B
:104C1000BC000020EFF3108272B6064B21B10129CF
:104C200005D15968014301E059688143596082F315
:104C300010887047BC0000204FF0FF3000F02CB807
:104C400070470000EFF3108172B6034A1368834384
:104C5000136081F310887047C400002070477047CC
:104C600010B51446EFF3108372B6FFF7FFF803494F
:104C700041F8204083F3108810BD0000000500209B
:104C8000EFF3108172B6034A13680343136081F394
:104C900010887047C40000202DE9F047334C666847
:104CA0003040606060694FF0FF37314D4FF00109CF
:104CB0003AE0401C236855F830200B401A42F8D0E7
:104CC00055F8302023680B401A4005EBC0035868A4
:104CD000104200D15F6058681040FFF7C7F82061AC
:104CE000D3F804C009FA00F22CEA020CEFF31088A2
:104CF000C3F804C072B6636993436361022209FA80
:104D000000F100BF05EBC203521E53F808CC2CEA99
:104D1000010C43F808CCF5D188F310881449803988
:104D200051F82000804760692168084061680842A6
:104D300003D0A068E2681040BCD02761FFF78FFF66
:104D4000EFF3108572B66069216808406168084217
:104D500005D1A068E168084201D1FFF771FF85F332
:104D60001088FFF77BFF6660BDE8F087C400002075
:104D700080050020EFF3108172B6034A9368034365
:104D8000936081F310887047C400002010B5EFF3E2
:104D9000108272B6064B5C6904435C61054B53F8A4
:104DA0003140044343F8314082F3108810BD0000C5
:104DB000C4000020800500202DE9F0410F4C25693A
:104DC000691C04D00127AF40E668E06004E00027DA
:104DD000FAE73846FFF730FFA068E1680842F8D0EC
:104DE000EFF31080256172B6A168E2689143A1607B
:104DF00080F31088E660BDE8F0810000C400002068
:104E000070B5144C257804F1080300EB400203EB65
:104E1000C202A84204D120786070507D20700FE05B
:104E2000157D507D567D05EB450503EBC5056E757B
:104E3000062805D0157D00EB400003EBC00005758A
:104E4000012010732078062803D1002901D1C01F4A
:104E5000606070BDCC010020FEE770470907090EB5
:104E6000002804DB00F1E02080F80014704700F017
:104E70000F0000F1E02080F8141D704700B587B0E6
:104E800000208DF800000146182201A8FEF7A0FDC1
:104E90003F20ADF804009220ADF8060001200690F6
:104EA000CDF814D0002101A800F0DCFB002802DAC4
:104EB000FF2007B000BD9DF80000FAE72DE9F043A0
:104EC000C9B01546DDE950890E4607461C46072243
:104ED000002140A8FEF77CFD8DF800708DF8016080
:104EE0008DF8025003251822002142A8FEF770FD1C
:104EF0003F20ADF808018A20ADF80A016846CDE9E7
:104F0000440540A8469007204790002142A800F0A1
:104F1000A9FB002803DAFF2049B0BDE8F0839DF823
:104F200000010028F8D1BDF801012080BDF803116F
:104F3000A8F80010BDF80511A9F800100020EBE753
:104F400010B5C8B000228DF81821ADF800008DF81A
:104F5000021003241822002140A8FEF739FD3F204B
:104F6000ADF80001A520ADF802016846CDE9420484
:104F700046A8449001204590002140A800F072FB13
:104F8000002802DAFF2048B010BD9DF81801FAE7AA
:104F900010B5C8B000228DF81821ADF80000CDF88A
:104FA000021006241822002140A8FEF711FD3F2020
:104FB000ADF800018820ADF802016846CDE9420451
:104FC00046A8449001204590002140A800F04AFBEB
:104FD000002802DAFF2048B010BD9DF81801FAE75A
:104FE000F0B5C7B04CAC94E8E05000248DF81841FF
:104FF0008DF800008DF801108DF802208DF8045016
:105000008DF805608DF803308DF80670CDF807C077
:105010008DF80BE00C241822002140A8FEF7D8FCE4
:105020003F20ADF800018620ADF802016846CDE9C9
:10503000420446A8449001204590002140A800F079
:1050400011FB002802DAFF2047B0F0BD9DF81801DF
:10505000FAE72DE9F04FCBB08446DDE954A4DDE951
:1050600056B74FF000088DF818818DF800C0ADF8E4
:105070000110ADF803200DEB0406684606F10805A3
:105080008DF8053081463E448DF806A08DF8074026
:105090002246594602A80936FEF798FC2F703A4678
:1050A000681C09345899FEF791FC599830805A9839
:1050B0003C4470801822002140A8241DFEF788FC83
:1050C0003F20ADF800018320ADF8020146A8CDF8DD
:1050D0000891CDE9434001204590002140A800F00F
:1050E000C1FA002803DAFF204BB0BDE8F08F9DF82D
:1050F0001801F9E710B5C8B000218DF818118DF826
:1051000000000124182240A8FEF762FC3F20ADF801
:1051100000018520ADF802016846CDE9420446A8A9
:10512000449001204590002140A800F09BFA0028FF
:1051300002DAFF2048B010BD9DF81801FAE700B56B
:1051400087B000208DF800000146182201A8FEF764
:105150003FFC3F20ADF804008120ADF8060001209F
:105160000690CDF814D0002101A800F07BFA0028A9
:1051700002DAFF2007B000BD9DF80000FAE710B585
:10518000C8B0044600228DF818218DF80040224650
:105190000DF10100FEF71AFC1822002140A8641C42
:1051A000FEF716FC3F20ADF800018E20ADF802019D
:1051B0006846CDE9420446A844900120459000216C
:1051C00040A800F04FFA002802DAFF2048B010BDD6
:1051D0009DF81801FAE72DE9FF4FC7B09946DDE9C0
:1051E00057BA0C4680466F46012916D0022C16D0BD
:1051F00000203E4685190322002140A8ED1CFEF741
:10520000E7FBADF800808DF80240012C09D0022C9C
:1052100009D097204BB0BDE8F08F0220E9E71020BD
:10522000E7E7022400E010242246F81C4999FEF723
:10523000CDFBA5F800905498A8705598E870569842
:10524000287185F805B085F806A01822002141A82C
:105250000A34FEF7BDFB3F20ADF804014FF4827025
:10526000ADF8060140A8CDE944400320469043969E
:10527000002141A800F0F6F9002801DAFF20C9E773
:105280009DF800010028C5D15998BDF80111018091
:105290000020BFE72DE9F04FC7B09946DDF840A1E7
:1052A00090468B4604466F46012814D0022C14D039
:1052B00000203E4685190322002140A86D1CFEF700
:1052C00087FB8DF80040012C09D0022C09D09720D3
:1052D00047B0BDE8F08F0220EBE71020E9E7022499
:1052E00000E0102422465946781CFEF76FFB85F833
:1052F000008085F801901822002141A8E41CFEF7E7
:1053000067FB3F20ADF804014FF48170ADF8060152
:1053100040A8CDE94440032046904396002141A88F
:1053200000F0A0F9002801DAFF20D1E79DF8000184
:105330000028CDD1BDF80111AAF80010C8E700B5CA
:1053400087B000208DF800000146182201A8FEF762
:105350003FFB3F20ADF8040040F20110ADF806001D
:1053600001200690CDF814D0002101A800F07AF9B0
:10537000002802DAFF2007B000BD9DF80000FAE720
:1053800070B5C8B01C46034600264C9D8DF81861C8
:10539000ADF800308DF80420ADF802108DF805400E
:1053A000224629460DF10600FEF710FB18220021C7
:1053B00040A8A41DFEF70CFB3F20ADF800014FF400
:1053C0008370ADF802016846CDE9420446A84490D6
:1053D00001204590002140A800F044F9002802DA9D
:1053E000FF2048B070BD9DF81801FAE7F0B5C9B0CC
:1053F0000546DDE94E4600278DF818718DF804202A
:10540000ADF80050ADF802108DF805308DF806406B
:10541000224631460DF10700FEF7D8FA1822002186
:1054200040A8E41DFEF7D4FA3F20ADF800014FF488
:105430009370ADF802016846CDE9420446A8449055
:1054400001204590002140A800F00CF9002802DA64
:10545000FF2049B0F0BD9DF81801FAE710B5C8B0BB
:1054600000218DF81811ADF800000224182240A880
:10547000FEF7AEFA3F20ADF800011820ADF80201AA
:105480006846CDE9420446A8449001204590002199
:1054900040A800F0E7F8002802DAFF2048B010BD6D
:1054A0009DF81801FAE710B5C8B000228DF8182150
:1054B0008DF800008DF8011002241822002140A868
:1054C000FEF786FA3F20ADF800010F20ADF802018B
:1054D0006846CDE9420446A8449001204590002149
:1054E00040A800F0BFF8002802DAFF2048B010BD45
:1054F0009DF81801FAE710B5C8B013460C46002213
:1055000001468DF818218DF800108DF801402246D3
:1055100019460DF10200FEF759FA1822002140A8A1
:10552000A41CFEF755FA3F20ADF800010C20ADF8A1
:1055300002016846CDE9420446A844900120459006
:10554000002140A800F08EF8002802DAFF2048B0C1
:1055500010BD9DF81801FAE70120FFF70BBC0120F0
:10556000FFF72ABC7FB50F4A0D460F4C49685160C2
:10557000E061204600F04CF80A482D680830FDF73D
:10558000F6FF0A4E06F108007560FDF7F0FF0120F6
:1055900030702168002904D00548009002956846C3
:1055A00088477FBDA4000020C0040020880100209F
:1055B000B54B000810B5C8B000238DF818318DF830
:1055C00000008DF801108DF80220032418221946DE
:1055D00040A8FEF7FDF90820ADF800013120ADF834
:1055E00002016846CDE9420446A844900120459056
:1055F000002140A800F036F8002802DAFF2048B069
:1056000010BD9DF81801FAE700210220FFF7BEBB8C
:10561000024901600249016170470000214A000807
:10562000614A000800B587B000208DF800000146EF
:10563000182201A8FEF7CCF90320ADF80400ADF85C
:10564000060001200690CDF814D0002101A800F03A
:1056500009F8002802DAFF2007B000BD9DF800001D
:10566000FAE700002DE9F84305460020FEF78AF925
:10567000298868882A7B61F39F2086B22348A9681D
:1056800000274068A0F80960C2720C30FAF7F5FDF7
:105690001F48002102690846904748F2E808404642
:1056A000FFF75DFF1BE069461A48FDF787FF00988A
:1056B000417A0F2920D0818900F10B04B1420BD12E
:1056C000807A6A69C01EC0B2824200DD02466A6109
:1056D000E11C2869FAF7D1FD207800B101270D48B7
:1056E000FDF760FF0028DED0002FD8D00120FEF7A4
:1056F00049F90020BDE8F883B0F80D100B30B14235
:1057000002D12A69017811704078E6E7880100200B
:10571000C0040020AC0000203EB51848FDF742FF51
:10572000164C083CE8B92078D8B169461348FDF713
:1057300045FF1348C169012051B1009A8DF804005A
:10574000029201A888479DF80400207008B904E07F
:1057500020700098FFF7B4F903E008480099FDF7BE
:1057600009FF0648FDF71EFF002805D12078002814
:1057700002D00248FFF748FF3EBD00009001002024
:10578000C00400202DE9F041284C0646217804F1A0
:10579000080800EB460208EBC205062911D0FEF707
:1057A00049FB0746A96840463944A960AB6821789F
:1057B00001EB410108EBC1018968994221780ED9BA
:1057C0002BE020786070267006206875C01F60602E
:1057D000002728E001EB410100EBC101497D01EB0D
:1057E000410200EBC202527D062A06D002EB4202C1
:1057F00000EBC20292689A42ECD901EB410200EB45
:10580000C2035A7D062A04D002EB420408EBC4000E
:1058100006756A7529755E7505E03046FDF7E6FE8A
:105820002078607026703846BDE8F081CC010020F9
:10583000A2B0FBF779FDFDF7F9FEFEF7B9FEFEF722
:10584000CCF841493F4808600846FBF723FD08B102
:1058500072B6FEE7FDF766FFFDF7DCFFFDF7B0FF70
:10586000FDF7FAFFFEF71EF83848016821F007013E
:1058700041F0040101603548083001684FF002052D
:10588000C90508D50168490505D5012101600560F4
:105890000846FBF701FE2D49092068390860012000
:1058A000FBF7FAFD28492A224C390FA8FAF72EFDFA
:1058B000254C4C3C608DADF86600E06A1A90206B78
:1058C0001B900D2204F134011CA8FAF71FFD94F877
:1058D00041008DF87D0094F842008DF87E00606CE8
:1058E0002090A06C21903C2213A96846FAF70EFD87
:1058F0000DF13C0C9CE80F00FAF7F4FFFAF7B1FF4A
:105900000720FBF73CF80420FBF73DF83920FAF7B5
:10591000DDFF0F4900200860082104F58870FDF7BD
:1059200075F80C484571FDF79FFE00BFFDF7F6FEC8
:1059300000F070FA00F03AFC00F0EEFB00F038FAEC
:10594000F4E70000000C00583003002080040058E9
:105950003C2C0140080000201CB500218DF80410EB
:10596000094964240A46087001235021074800941D
:10597000FBF7CAFB012301AA502104480094FBF75E
:1059800031FB9DF804001CBDF400002090090020AC
:105990000220FFF7EFB90220FFF70EBAFEB5104A5A
:1059A0000D46104C49685160E061204600F026F831
:1059B0000D4E2D6806F108007560FDF7D8FD012039
:1059C000FAF7E6FF012070702168002906D0074829
:1059D00000900748CDE9010568468847FEBD0000F4
:1059E000B4000020E0040020BC010020AB4B000804
:1059F000ED4B000800210420FFF7C8B902490160FF
:105A000002490161704700002D4B0008614B0008FE
:105A10002DE9F04106461D4617460C460020FAF7D0
:105A2000B7FF31460F4E22467068A0F80910C472C5
:105A300039460C30FAF721FC0B4800210269084670
:105A4000904748F2E800FFF7A6FF716805F10800EB
:105A50008A78D21CFAF711FCBDE8F0410120FAF770
:105A600097BF0000BC010020E00400203EB51848AC
:105A7000FDF798FD164C083CE8B96078D8B1694646
:105A80001348FDF79BFD1348C169012051B1009AED
:105A90008DF80400029201A888479DF80400607008
:105AA00008B904E060700098FFF70AF803E00848BE
:105AB0000099FDF75FFD0648FDF774FD002805D14C
:105AC0006078002802D00248FFF794FF3EBD000036
:105AD000C4010020E004002070B50A4B00F0070567
